:020000040800F2
:10000000D00A00202D020008AB2F0008F51F0008C1
:10001000A72F0008291800080B4A0008000000005C
:10002000000000000000000000000000393A000855
:100030009D1B00080000000021340008E93B000877
:10004000470200084702000847020008470200086C
:10005000470200084702000847020008470200085C
:10006000470200084702000847020008470200084C
:10007000470200084702000847020008470200083C
:10008000470200084702000847020008470200082C
:10009000470200084702000847020008470200081C
:1000A000470200084702000847020008470200080C
:1000B000470200088D3E0008A53E000847020008E0
:1000C00047020008470200084702000847020008EC
:1000D000470200084D470008470200084702000891
:1000E000C51B000847020008470200084702000835
:1000F00047020008470200084702000847020008BC
:1001000047020008470200084702000847020008AB
:100110004702000847020008BD3E000847020008E9
:10012000470200084702000847020008470200088B
:1001300000F002F800F06AF80AA090E8000C82448F
:100140008344AAF10107DA4501D100F05FF8AFF26C
:10015000090EBAE80F0013F0010F18BFFB1A43F0A5
:1001600001031847A0C50000C0C500000A444FF0B5
:10017000000C10F8013B13F0070408BF10F8014B06
:100180001D1108BF10F8015B641E05D010F8016B4B
:10019000641E01F8016BF9D113F0080F1EBF10F8AF
:1001A000014BAD1C0C1B09D16D1E58BF01F801CBD2
:1001B000FAD505E014F8016B01F8016B6D1EF9D555
:1001C0009142D6D37047000000230024002500266A
:1001D000103A28BF78C1FBD8520728BF30C148BFAA
:1001E0000B607047662908F09E86642900F0B8808D
:1001F000002070471FB500F08BFC04000020002198
:1002000007F080FDE0601FBD10B510BD00F088FD57
:100210001146FFF7EFFF06F077FB00F0A6FD03B4F1
:10022000FFF7F2FF03BC04F09BFC00000948804785
:1002300009480047FEE7FEE7FEE7FEE7FEE7FEE7C8
:10024000FEE7FEE7FEE7FEE704480549054A064BE0
:1002500070470000ED3B000831010008D004002089
:10026000D00A0020D0060020D0060020704710B52C
:100270004C1084EA530404D54042C1F1000138BF58
:10028000491E1B4204D55242C3F1000338BF5B1E16
:1002900000F0FCF814F0804F04D04042C1F100019E
:1002A00038BF491E14F0004F04D05242C3F100037E
:1002B00038BF5B1E10BD00000FB4044910B503AA7F
:1002C000029800F0EBFB10BC5DF814FB3801002035
:1002D0000FB41CB5074B06AA7B44694600900598ED
:1002E00000F0C3FB0020694600F0D2FB1CBC5DF8A7
:1002F00014FB0000B50700002DE9F0410E4604464E
:10030000002020622046E168884730B3252805D0C8
:10031000D4E901219047206A401CF2E7E1682046B9
:1003200000278847050018D0A5F14100192802D8F8
:1003300020354FF400673246294620462760FFF7F4
:1003400051FF40B1012804D0F61D26F007060836FB
:10035000D8E7361DD6E72846DAE7206ABDE8F081FF
:100360002DE9F0410646002410687529314616A58E
:1003700010D0AFF30080002802DA404213A507E056
:1003800031688A0701D512A502E0490704D511A5F5
:10039000012401E0AFF3008000210A2206F12407C6
:1003A00009E0B0FBF2FCB0FBF2F302FB1C003030C2
:1003B00078541846491C0028F3D123462A46304673
:1003C000BDE8F04100F0E4B8000000002D0000009E
:1003D0002B0000002000000040EA010310B59B073D
:1003E0000FD1042A0DD310C808C9121F9C42F8D09F
:1003F00020BA19BA884201D9012010BD4FF0FF3050
:1004000010BD1AB1D30703D0521C07E0002010BD65
:1004100010F8013B11F8014B1B1B07D110F8013BF1
:1004200011F8014B1B1B01D1921EF1D1184610BDD2
:1004300002F0FF0343EA032242EA024200F002B85C
:100440004FF000020429C0F0128010F0030C00F0FD
:100450003983CCF1040CBCF1020F18BF00F8012B5A
:10046000A8BF20F8022BA1EB0C0100F02BBB5FEA28
:10047000C17C24BF00F8012B00F8012B48BF00F815
:10048000012B7047704770477047704753EA020C62
:1004900000F069802DE9F04B4FF00006002B1FBFE4
:1004A000B3FA83F503FA05F424FA05F65E4012BFA9
:1004B0001643B2FA82F502FA05F4C5F120051EBF13
:1004C00022FA05FC44EA0C04203556EA044C4FEAB3
:1004D000144418BF641C4FF000084FF0000990420C
:1004E00071EB030C39D3002919BFB1FA81F701FA76
:1004F00007F6B0FA80F700FA07F6C7F120071EBF2B
:1005000020FA07FC46EA0C062037B6FBF4FCA7EB02
:100510000507103F07F01F0BCBF120060CFA0BFB71
:100520002CFA06F644BFB3460026202FA4BF5E4631
:100530004FF0000B5BEA060C08BF4FF0010B19EB04
:100540000B09ABFB027C48EB0608C01B06FB02CC88
:100550000BFB03CC71EB0C01C1E70B460246414695
:100560004846BDE8F08B13B54FF000004FF0000196
:10057000AFF30080BDE81C40704710B500F0CCFA26
:10058000006810BD10B5044600F0C6FA046010BD46
:100590002DE9F0470D4699469246044600F124089D
:1005A0000168880604D5E06921F01001216000E0AF
:1005B0000120A84201DD471B00E00027A1697A194C
:1005C00002EB0900081AA0612078C00602D4204678
:1005D000AFF30080002608E0D4E901211AF80600F4
:1005E0009047206A401C761C20624E45F4DB207840
:1005F000C0060AD52046AFF3008006E0D4E9012109
:1006000030209047206A401C2062381EA7F1010765
:10061000F4DC07E0D4E9012118F805009047206ACE
:10062000401C2062281EA5F10105F3DC2046AFF333
:1006300000802078000602D50220BDE8F087012066
:10064000FBE770472DE9FF4F0C461E464FF0FF3782
:100650008BB0D2E90001DDF860800A908A46C1F3D0
:100660000A5505B93D46002108464FF00000BAF191
:10067000000F00F4400005DA00EB80004FF4400169
:1006800001EA50004FEA9059B9F1010F00DDB94677
:100690000A9850EA4A000ED044F61050A5F2FF35F1
:1006A00045432F14B8F1000F1ED07542291E1EDDE0
:1006B000C9F100021CE0B8F1010F4FF0000001D0B9
:1006C000302103E0F24305E02154401CB042FBDB43
:1006D00030460022002121540B99C1F80880C1E95D
:1006E00000200FB0BDE8F08FBD1B6D1CDEE74A4651
:1006F00000DA694206A800F099FA06AB93E8070011
:1007000003AB83E8070050460A9900F077FB8DE8B9
:100710000700A0F500501F3800900398002D0ADD57
:1007200042F21F014A460844002303A90390684689
:1007300000F0E0FD09E0A0F500504A461F38002314
:1007400003A90390684600F0EAFD8DE80700000465
:10075000000C03D04FF0FF30410800E01046B8F124
:10076000000F03D00022009215461EE0751E05D42E
:1007700000F0D6F9303262556D1EF9D5B34601222C
:10078000084302D000227F1C04E02078302801D1E9
:1007900000227F1E002A099784D01DE0112D07DA60
:1007A00000F0BEF9303262556D1C50EA0102F5D1FD
:1007B000084302D00098C8B10EE00021681E05E091
:1007C000235C625C63542254401E491C8142F7DB67
:1007D000AB46A81B401E0990002004F80B000B98A4
:1007E000099AC0F80880C0E9002B7AE711264FF07B
:1007F000000857E72DE9F04F88460446D21D22F045
:10080000070191B0D1E90001CDE90A0104F02CF90A
:1008100002460B98C00F01D02D2007E02068810709
:1008200001D52B2002E0202101EAC000032A099013
:1008300001D0072A05DB03464146204600F0B6F901
:100840000BE12078800601D5E06900E00620B8F1D0
:10085000650F814606D0B8F1660F18D0B8F1670F62
:1008600070D131E00020B9F1110F009001DB1123AC
:1008700001E009F101030AAA01A90CA8FFF7E2FEB1
:10088000DDE90C70002609F10105834647E00120EF
:100890004B4600904FF000470AAA01A90CA8FFF7A9
:1008A000D1FEDDE90DB00C995D46002610B909F1C5
:1008B00001000D18B9EB050003D4C0F1FF3609F1B2
:1008C0000105A5EB09002BE0B9F1010F01DA4FF0AA
:1008D00001090020B9F1110F0090484601DD1123F4
:1008E00000E003460AAA01A90CA8FFF7ABFEDDE968
:1008F0000C704D4600268346207800070AD4AB458D
:1009000000DA5D4601A8012D04DD411911F8011C32
:10091000302907D04F4502DA17F1040F04DA01201D
:1009200082460FE06D1EEEE7002F02DCED1B3E4419
:1009300003E0781CA84200DD7D1CB81B00F1010A11
:100940004FF000472078000703D4AA4501DB4FF0A1
:10095000FF3A0021B7F1004F0DF143088DF8431025
:1009600024D002202B23002F01DA7F422D230A21DD
:10097000021EA0F1010000DC5FB197FBF1FC97FBC8
:10098000F1F201FB1C7C17460CF1300C08F801CD8C
:10099000EEE7A8F1010003702188090501D5452182
:1009A00000E06521A0F1010800F8011C09980FA9D9
:1009B000A1EB0807FF1D00B10120411901EBEA700E
:1009C000A1693844081A401EA0612078C00602D4EC
:1009D0002046AFF30080099828B1D4E9012190475F
:1009E000206A401C20622078C00622D52046AFF342
:1009F00000801EE0002E04DBB34502DD01A8805D0F
:100A000000E03020D4E901219047206A401C206298
:100A1000761CAAF101005FEA000A0AD100F078F81A
:100A2000C0680168405CD4E901219047206A401CFD
:100A30002062281EA5F10105DCDC07E0D4E90121D4
:100A400018F8010B9047206A401C2062381EA7F15D
:100A50000107F3DC2046AFF30080032011B041E62C
:100A600001694A1C02610878704700B58FB0CDE972
:100A700001310021059105497944CDE90310114662
:100A80006846FFF739FC0FB000BD0000E5FFFFFF2F
:100A90000A6802F8010B0A6070470000074B70B546
:100AA0000D467B44FFF7E1FF0446284600F030F98D
:100AB00010B14FF0FF3070BD204670BD635600008E
:100AC0004FF0000200B5134694469646203922BFE7
:100AD000A0E80C50A0E80C50B1F12001BFF4F7AF32
:100AE000090728BFA0E80C5048BF0CC05DF804EB14
:100AF000890028BF40F8042B08BF704748BF20F882
:100B0000022B11F0804F18BF00F8012B7047000036
:100B1000004870479004002000487047700400208F
:100B200030B5B0F10A024FEA900E71F100034EEABF
:100B3000817EB0EB0E0061EB91014FEA101E4EEA90
:100B4000017E10EB0E0041EB11114FEA102E4EEA20
:100B5000016E10EB0E0041EB11214FEA104E4EEAF0
:100B6000014E10EB0E0041EB1141401841F1000124
:100B70004FEAD00040EA41704FEAD10110EB800506
:100B80004FEA810444EA907444EB01046D1944EB8C
:100B90000404521BA3414FF0000348BF0A3200D5A2
:100BA00030BD401C41F1000130BD00002DE9F04195
:100BB0001F46044603260168072A01F4006004DB8F
:100BC00008B116A505E016A503E008B115A500E0DB
:100BD00015A521F010002060A069C01EA0610FB112
:100BE000401EA0612046AFF300804FB1D4E901213F
:100BF00038469047206A401C2062C01C206206E0F4
:100C0000206AFAE7D4E9012115F8010B9047761E16
:100C1000F8D22046AFF30080BDE8F0814E414E008F
:100C20006E616E00494E4600696E66002DE9F04720
:100C3000814616468AB0354878440DC88DE80D00C7
:100C400032487844801C03AC0DC884E80D0041F69E
:100C50009B300844372190FBF1F290FBF1F5A5F1B0
:100C6000800501FB12041B3C02D56442012000E018
:100C70000020DFF898A080460027FA44AAF1BE0AB7
:100C80000EE0E0070AD03246684607EB4701012331
:100C90000AEB810100F043FB8DE8070064107F1C24
:100CA000002CEED1194F7F44AE3F19E0E80715D074
:100CB00007EB04100DF1180A90E80E008AE80E0008
:100CC000C068F04201D1981908903246012306A964
:100CD00003A800F024FB03AB83E807006D10641C3D
:100CE000002DE3D14FF0010332466946B8F1000F01
:100CF00003A802D000F0FEFA01E000F010FBC9E901
:100D00000001C9F808200AB0BDE8F08760BA000009
:100D1000007B00F08000704700487047700400209E
:100D20007546FFF7F9FFAE4605006946534620F0C9
:100D30000700854618B020B5FFF786FABDE82040C9
:100D40004FF000064FF000074FF000084FF0000B87
:100D500021F00701AC46ACE8C009ACE8C009ACE83A
:100D6000C009ACE8C0098D46704710B50446AFF322
:100D700000802046BDE81040FFF751BA4FF0013C1B
:100D800050F8042B51F8043B9A4221D1A2EB0C03FA
:100D9000934313EACC1317D150F8042B51F8043BBA
:100DA0009A4215D1A2EB0C03934313EACC130BD157
:100DB00050F8042B51F8043B9A4209D1A2EB0C03E2
:100DC000934313EACC13DBD04FF00000704700BF11
:100DD000D01A01BAB1FA81F101F0180122FA01F03A
:100DE000CB40C1F12001DBB2C0B2C01A2CFA01F332
:100DF000D11A914311EAC311E6D170475FEA400C62
:100E000008BF91F0000F4FEA8C234FEAC12243EA5A
:100E100051514FEA1C5018BF00F5F0404FEA300026
:100E200018BF41F000415FEA6C5C00F02980BCF122
:100E3000FF3F08BF40F080407047130C06BF12040C
:100E40004FF0100C4FF0000C130E04BF12020CF107
:100E5000080C130F04BF12010CF1040C930F04BF14
:100E600092000CF1020CD30F04BF52000CF1010CE4
:100E700011464FF00002A0F11F00A0EB0C007047DC
:100E800011F0004F08BF704731F000413FF4D5AF7B
:100E90000B0C06BF09044FF0100C4FF0000C0B0EAA
:100EA00004BF09020CF1080C0B0F04BF09010CF17F
:100EB000040C8B0F04BF89000CF1020CCB0F04BF94
:100EC00049000CF1010CCCF12003A0EB0C0022FA3C
:100ED00003F302FA0CF241EA030100F1010070474A
:100EE00020F07F4C80EA030023F07F47ACEB070340
:100EF00003F57C5300F0004003F1FF032DE9804926
:100F00004FEA154B09B44FEA144325EA0B4E24EA85
:100F100003480FF2042606EB132749083E785FEAE0
:100F2000320203FB0667C7F5000707FB06F64FEA28
:100F300054374FEAD64606F1020607FB066CCCF1A1
:100F4000005C4FEA1C472CEA074C07FB06F40CFB3D
:100F500006F504EB15464FEA961634BF00204FF015
:100F600000404FEAD13706FB07FC4FEA1C4C0CFB54
:100F70000BF7D21B03FB0CF761EB07010CFB0EF721
:100F8000B0EB074072EB17420CFB08F734BFA2EB43
:100F90000742B2EB074261EB17414FEA0C444FEABC
:100FA000910706FB07FC4FEA1C4C0CFB0BF7B0EB60
:100FB000C74072EB573203FB0CF734BFA2EBC742BA
:100FC000B2EBC74261EB57310CFB0EF7B0EBC70039
:100FD00072EB57720CFB08F734BFA2EBC702B2EBFF
:100FE000C70261EB5771039F4FEA816141EA921199
:100FF00004EBCC044FEAD1374FEA826206FB07FCD0
:1010000042EA90124FEA80604FEA1C4C0CFB0BF74F
:10101000D21B03FB0CF761EB07010CFB0EF7B0EBE7
:10102000074072EB17420CFB08F734BFA2EB0742F4
:10103000B2EB074261EB17414FEA8C554FEA91073B
:1010400004EB9C2406FB07FC4FEA1C4C0CFB0BF743
:10105000B0EBC74072EB573203FB0CF734BFA2EB87
:10106000C742B2EBC74261EB57310CFB0EF7B0EB56
:10107000C70072EB57720CFB08F734BFA2EBC70234
:10108000B2EBC70261EB577115EB4C254FEA81615A
:1010900041EA92114FEA82624FEAD13742EA901256
:1010A00006FB07FC44F100044FEA80604FEA1C4C49
:1010B0000CFB0BF7D21B03FB0CF761EB07010CFBDE
:1010C0000EF7B0EB074072EB17420CFB08F734BF8A
:1010D000A2EB0742B2EB074261EB174115EB1C157F
:1010E0004FEA813141EA92414FEA823242EA90422C
:1010F0004FEA80304FEA0C7644F1000448EA03439B
:101100004EEA0B484FF0000EB2EB080C71EB0307F0
:1011100024BF624639464EEB0E0E4FF0000B00180E
:10112000524149414BEB0B0BB2EB080C71EB03073F
:101130007BF1000B24BF624639464EEB0E0E4FF09A
:10114000000B0018524149414BEB0B0BB2EB080C62
:1011500071EB03077BF1000B24BF624639464EEB6F
:101160000E0E51EA020718BF46F0010616EB0E7686
:1011700055F1000254F1000103D5BDE88901BDE835
:101180000088BDE88901BDE80048B619524141EB2D
:101190000101A3F10103704780807F7E7D7C7B7A13
:1011A0007978777676757473727171706F6E6E6D13
:1011B0006C6C6B6A6A6968686766666564646363B9
:1011C00062616160605F5F5E5E5D5D5C5C5B5B5A3F
:1011D0005A595958585757565655555554545353AC
:1011E00052525251515050504F4F4F4E4E4D4D4D07
:1011F0004C4C4C4B4B4B4A4A4A4949494848484752
:10120000474747464646454545444444444343438F
:101210004342424242414141002B9C4630D4770038
:101220002BD01CB54FEA370703B44FF010004FF036
:101230001001BAF1000F06D0BCF1000FDCBF40F086
:10124000080040F008014FF000000FBCBDE810405E
:101250000BF1010BBBF1010F08BF5FEA170722BFBB
:1012600012F1010211F101014FF0004143F10003BD
:1012700000F0004043EA00007047F9D35708D0E778
:1012800046EA064613F1400F4FEA16461FDD13F1FA
:10129000200FDFBF16430A46002120335B42BED039
:1012A000C3F1200746EA064602FA07F74FEA164658
:1012B00046EA0706C3F1200722FA03F201FA07F70C
:1012C00021FA03F14FF0000342EA0702A7E746EADA
:1012D000020646EA06464FEA164646EA0106BCBF43
:1012E00046EA0646360C4FF000034FF000024FF07E
:1012F000000194E72DE9804C9A46934670B491E83A
:10130000380007C831EA400C48BF34EA430C03D523
:10131000FFF7E6FDFFF780FFF0BCBDE8008C2DE98C
:10132000804C9A46934670B491E8380007C810F094
:10133000804F08BF13F0804F03D100F005F8FFF78E
:101340006BFFF0BCBDE8008C20F07F4780EA030013
:1013500023F07F4C07EB0C03A3F57C5300F0004017
:10136000A3F1FE0392F0000F00F0B38095F0000FA0
:1013700000F077802DE901494FEA11404FEA144609
:1013800021EA004800FB06FC24EA064708FB06F6B3
:1013900007FB08F800FB07F718EB06484CEB164C68
:1013A0004FEA124B18EB07484FEA15464CEB174033
:1013B00022EA0B4E0BFB06FC25EA06470EFB06F65F
:1013C00007FB0EFE0BFB07F71EEB064E4CEB164C15
:1013D0004FF000061EEB074E4CEB174B18EB0B08BB
:1013E00040F1000018EB0E0B58EB000840F1000034
:1013F0008F1A4FF000013CBFC943661B14BFB5EB09
:10140000040C00213CBFC943F61B4FEA17444EEAC7
:101410008E0E27EA04454FEA1C4704FB07622CEABC
:10142000074C05FB07F70CFB05F604FB0CFC16EB61
:10143000074642EB174216EB0C4642EB1C421BEBF5
:10144000060658EB0202414146EA9E0601D5BDE878
:101450000189B619524141EB0101A3F10103BDE835
:1014600001894FEA14454FEA114724EA054621EA6B
:10147000074C05FB07F406FB07F70CFB06F105FB21
:101480000CFC11EB074144EB17444FEA124711EBF8
:101490000C4144EB1C4422EA074C05FB07F206FB17
:1014A00007F70CFB06F605FB0CFC16EB074642EBB8
:1014B000174216EB0C4642EB1C456A1854F100012A
:1014C00048BF7047B619524141EB0101A3F1010336
:1014D000704795F0000F37D04FEA11424FEA14479A
:1014E00021EA024624EA074C02FB07F106FB07F754
:1014F0000CFB06F402FB0CFC14EB074441EB174118
:101500004FEA154714EB0C4441EB1C4125EA074C0C
:1015100002FB07F506FB07F70CFB06F602FB0CFCCB
:1015200016EB074645EB174516EB0C4645EB1C4200
:10153000121951F1000148BF7047B619524141EBF1
:101540000101A3F1010370474FEA14454FEA114727
:1015500024EA054621EA074C05FB07F106FB07F7DD
:101560000CFB06F24FF0000605FB0CFC12EB0742E9
:1015700041EB174112EB0C4251EB1C4148BF704745
:10158000921841EB0101A3F10103704721B1826878
:1015900042F00102826003E0826822F00102826070
:1015A0007047000010B504461248844208D101215A
:1015B000401501F073FF0021601501F06FFF17E087
:1015C0000D48844208D10121001501F067FF002178
:1015D000201501F063FF0BE00848844208D1012187
:1015E000C80301F05BFF00214FF4004001F056FFFB
:1015F00010BD00000024014000280140003C0140D3
:10160000014600208A6802F004020AB1012000E0CD
:1016100000207047014600208A6802F008020AB1E3
:10162000012000E00020704730B502460020002372
:1016300050680F4C20400D790C6844EA0524204383
:10164000506090680B4C2040D1E902542C434D79F6
:1016500044EA450420439060D06A20F470000C7C7A
:10166000641EE4B2234340EA0350D06230BD000060
:10167000FFFEF0FFFDF7F1FF816841F00801816096
:101680007047816841F004018160704708B501210D
:10169000102001F0F3FE4FF47070ADF80000182038
:1016A0008DF8030003208DF802006946014800F020
:1016B0000DFC08BD001001402DE9F04704460D4621
:1016C000094E0A4F2946384607F0BAFA8146314694
:1016D000204607F0B5FA8246494607F0B1F8804641
:1016E00007F012FABDE8F0870000C8429A99193F46
:1016F00030B587B005460C460121480301F0BEFE17
:10170000254802F061FC681E80B2ADF81400ADF807
:1017100010400020ADF81600ADF8120004A91E48D4
:1017200002F06AFF6020ADF800000120ADF8020071
:101730000020ADF80600ADF808006946164802F032
:10174000D1FD6946144802F023FE6946124802F0B2
:101750007FFE6946104802F0D5FE01210E4802F0D6
:1017600023FC08210C4802F009FE08210A4802F077
:1017700061FE0821084802F0BBFE0821064802F07D
:10178000FFFE0121044802F0F1FB0121024802F0B2
:10179000FFFB07B030BD00000034014000B587B04A
:1017A00001214FF4017001F069FE4FF4004001F097
:1017B00039FE2020ADF8040000208DF8070001A9B3
:1017C000174800F083FB1748FFF7ECFE002002905B
:1017D0008DF80C008DF80D004FF46020049000206F
:1017E000059001208DF8180002A90E48FFF71CFF94
:1017F00001210C48FFF7CAFE0A48FFF73DFF00BF72
:101800000848FFF707FF0028FAD10648FFF739FF1D
:1018100000BF0448FFF7F4FE0028FAD107B000BD6E
:10182000000801400024014000BFFEE72DE9F04F11
:101830008BB083468A4620480A90504606F0D4FF73
:101840001E4A1F4BCDE9000106F0F4FC8046894694
:101850001C48006806F0C8FF42464B46CDE902012D
:1018600006F098FACDE904014FF07E500A9907F08E
:10187000E5FA804606F0B8FF0646DDE9042306F0E7
:10188000D9FC04460D4658460A9907F0D9F9064690
:1018900006F0AAFF22462B46CDE9060106F07AFAA9
:1018A000CDE9080106F044FA0649086008460068D8
:1018B0000BB0BDE8F08F00000AD7A33C7B14AE4705
:1018C000E17A743FB00000202DE9F04F8BB08346E1
:1018D0008A4620480A90504606F086FF1E4A1F4B53
:1018E000CDE9000106F0A6FC804689461C48006848
:1018F00006F07AFF42464B46CDE9020106F04AFA6D
:10190000CDE904014FF07E500A9907F097FA80461E
:1019100006F06AFF0646DDE9042306F08BFC044668
:101920000D4658460A9907F08BF9064606F05CFF0B
:1019300022462B46CDE9060106F02CFACDE9080136
:1019400006F0F6F906490860084600680BB0BDE8E5
:10195000F08F00000AD7A33C7B14AE47E17A743FB6
:10196000B40000200146072323EA01021202054BBE
:1019700018684FF6FF031840034B18431043014B00
:10198000186070470CED00E00000FA0538B5002043
:1019900000906B4601227521682004F0DDFE2CA02A
:1019A000FEF78AFC9DF8000068280ED000BF314881
:1019B000006800F4E06030490843001D2D490860CC
:1019C000BFF34F8F00BF00BFFEE705F063F90028AB
:1019D0003CD1782005F068FF10B91DA0FEF76CFC23
:1019E000782005F045F810B924A0FEF765FCC82062
:1019F00005F00CFF10B92BA0FEF75EFC03F020FFF2
:101A000010B932A0FEF758FC3D4804F010FF044620
:101A100004F070F910B93BA0FEF74EFC40F27310D1
:101A200003F0B6FD10B941A0FEF746FCC82004F053
:101A300091F810B947A0FEF73FFC06F044F80120EA
:101A400005F0E0FD10B94CA0FEF736FC38BD0000F3
:101A50006D70755F7365745F73656E736F7220630D
:101A60006F6D706C657465202E2E2E2E2E2E0D0A35
:101A7000000000000CED00E00000FA056D70755FDD
:101A8000636F6E6669677572655F6669666F20630E
:101A90006F6D706C657465202E2E2E2E2E2E0D0A05
:101AA000000000006D70755F7365745F73616D7029
:101AB0006C655F7261746520636F6D706C657465D1
:101AC000202E2E2E2E2E2E0D0A000000646D705F2B
:101AD0006C6F61645F6D6F74696F6E5F647269765D
:101AE00065725F6669726D7761726520636F6D7094
:101AF0006C657465202E2E2E2E2E2E0D0A000000F1
:101B0000A0000020646D705F7365745F6F7269651B
:101B10006E746174696F6E20636F6D706C6574654F
:101B2000202E2E2E2E2E2E0D0A000000646D705FCA
:101B3000656E61626C655F66656174757265206370
:101B40006F6D706C657465202E2E2E2E2E2E0D0A54
:101B500000000000646D705F7365745F6669666F96
:101B60005F7261746520636F6D706C657465202EA3
:101B70002E2E2E2E2E0D0A006D70755F7365745F0C
:101B8000646D705F737461746520636F6D706C65F4
:101B90007465202E2E2E2E2E2E0D0A00704701B5B4
:101BA00000200AE0002001E0411CC8B20A28FBDB4B
:101BB0009DF80010491EC9B200919DF8001000293F
:101BC000F0D108BD2DE9F84F35480068002864D1F0
:101BD0004FF4805033490860012000F075FF04463F
:101BE000D4F80480E06800902F49606908602F48AD
:101BF00001682F48006807F021F92E49086000208D
:101C000001F00AFE0546012001F006FE06462A48BC
:101C10000078012840D14FF00F0940460099FFF7A6
:101C20004BFD8346A819494602F0F2FE8344002288
:101C3000204801681C48006802F03AFDABEB000A3E
:101C400040460099FFF738FD8346A819494602F03F
:101C5000DFFE83440022174801681348006802F041
:101C600027FD0BEB0007504601F0C4FB8246134AE8
:101C70005142504601F0CBFB8246384601F0BAFB98
:101C800007460E4A5142384601F0C1FB0746394625
:101C9000504601F047FF00BF00BFBDE8F88F0000CD
:101CA0003001214214040140000000208C0000207B
:101CB000080000200400002010000020D8F5FFFFDD
:101CC000002123498279002A3AD00A461268036823
:101CD0009A430B461A600A1D126803689A430B1D4B
:101CE0001A60027911440A6803681A430A60184AA4
:101CF0000832126803689A43154B08331A601A1D9C
:101D0000126803689A43124B0C331A604279102A06
:101D10000ED11A1F126803681A430D4B08331A605C
:101D20001A1D126803681A43094B0C331A600DE040
:101D30000749427911440A6803681A430A6005E0BA
:101D4000027911440A6803689A430A6070470000E8
:101D50000004014000B587B00121022001F06EFBB4
:101D60000121042001F08AFBC020ADF8000004200E
:101D70008DF8030069461C4800F0A8F804A802F09A
:101D80008DFC0020ADF810004FF6FF70ADF8140088
:101D90000020ADF81600ADF8120004A9134802F0B7
:101DA0002BFC00231A460321104802F001FA01A877
:101DB00002F086FA0A20ADF80C0001A90B4802F0E7
:101DC00029FA0121094802F0DDF8012211460748ED
:101DD00002F07FFA0021054802F0DFFB01210348F1
:101DE00002F0D6F807B000BD000801400004004032
:101DF00000B587B00121042001F020FB012108205B
:101E000001F03CFBC020ADF8000004208DF8030079
:101E100069461C4800F05AF804A802F03FFC002074
:101E2000ADF810004FF6FF70ADF814000020ADF8CB
:101E30001600ADF8120004A9134802F0DDFB0023E0
:101E40001A460321104802F0B3F901A802F038FA4B
:101E50000A20ADF80C0001A90B4802F0DBF90121C2
:101E6000094802F08FF801221146074802F031FAC2
:101E70000021054802F091FB0121034802F088F897
:101E800007B000BD000C01400008004030B5002242
:101E90008B071C0F0F2303FA04F20B4B8C1053F823
:101EA00024309343084C8D1044F8253023468C1081
:101EB00053F824308C07240F00FA04F42343024C17
:101EC0008D1044F8253030BD080001402DE9F04167
:101ED000024600250026002000230024002791F858
:101EE00003C00CF00F0591F803C00CF0100CBCF10E
:101EF000000F03D091F802C04CEA050591F800C02C
:101F0000BCF1000F31D0146800202BE04FF0010C21
:101F10000CFA00F3B1F800C00CEA03069E4220D18F
:101F200083004FF00F0C0CFA03F7BC4305FA03FCD7
:101F30004CEA040491F803C0BCF1280F06D14FF01D
:101F4000010C0CFA00FCC2F814C00AE091F803C0BE
:101F5000BCF1480F05D14FF0010C0CFA00FCC2F89F
:101F600010C0401C0828D1D31460B1F800C0BCF1E7
:101F7000FF0F34DD546800202EE000F1080C4FF014
:101F8000010808FA0CF3B1F800C00CEA03069E42FF
:101F900021D183004FF00F0C0CFA03F7BC4305FA74
:101FA00003FC4CEA040491F803C0BCF1280F05D1EE
:101FB00000F1080C08FA0CF8C2F8148091F803C07C
:101FC000BCF1480F07D100F1080C4FF0010808FAE6
:101FD0000CF8C2F81080401C0828CED35460BDE82D
:101FE000F0810246002093680B400BB1012000E015
:101FF0000020704700BFFEE770B505460E4600247E
:1020000000F0EAF8284600F0B5F8641C00F03CF94E
:10201000304600F0AFF8641C00F036F900F0DCF850
:10202000691CC8B200F0A6F8641C00F02DF900206D
:1020300000F068F8044600F003F9204670BD000087
:1020400010B500200E4908600E48006820F470604A
:102050000C4908600846006840F4407008600020A1
:102060000949C1F8A801012003F056FA01200449EA
:10207000086003F051FA00200349C1F8AC0110BD1B
:10208000AC812142040C01400080214208B50121AD
:10209000082001F0F3F94FF44060ADF80000102083
:1020A0008DF8030003208DF8020069460148FFF710
:1020B0000DFF08BD000C014010B500200E4908605E
:1020C0000E48006820F470600C49086008460068FB
:1020D00040F44070086001200949C1F8A80103F0EC
:1020E0001BFA01200449086003F016FA0020044995
:1020F000C1F8AC0110BD0000AC812142040C0140CC
:102100000080214270B5054600241748006820F47D
:102110007060154908600846006840F40060086077
:10212000002616E0002011490860022003F0F4F9AF
:1021300001200F49C1F8AC016006040E0B48843839
:10214000006808B1601CC4B2022003F0E5F9701CFD
:10215000C6B2082EE6DB15B1FFF772FF01E0FFF70C
:10216000ABFF204670BD0000040C0140AC81214251
:102170000080214270B504461448006820F4706065
:10218000124908600846006840F44070086000206A
:102190000F490860002516E0E0090D49091F086095
:1021A0006006040E012003F0B7F901200949C1F8C7
:1021B000AC0103F0B1F9002005490860012003F0EB
:1021C000ABF9681CC5B2082DE6DB70BD040C0140FC
:1021D000AC8121420080214210B51648006820F4ED
:1021E0007060144908600846006840F44070086058
:1021F0000120114908601148D0F8280108B90020D1
:1022000010BD01200C49091D086003F085F900206C
:102210000A49C1F8A80108488038006808B10020C0
:10222000EEE7012003F078F900200349091D08605A
:102230000120E5E7040C0140A881214200802142F1
:1022400010B50E48006820F470600C49086008461C
:10225000006840F44070086000200949086009499E
:10226000C1F8A801012003F057F9012004490860D2
:102270000449C1F8A80103F04FF910BD040C014056
:10228000AC8121420080214210B50024154800682D
:1022900020F47060134908600846006840F400604C
:1022A000086001201049086003F036F901200F4949
:1022B000C1F8AC0103F030F90AE0601CC4B2322C62
:1022C00003DDFFF7BDFF002010BD012003F024F95E
:1022D0000548803800680028EFD10349091D0860CF
:1022E0000120F1E7040C0140A88121420080214235
:1022F00070B505460E46144631462846FFF77CFE6B
:102300002070012070BDF8B506460F4614461D46E4
:102310006A4639463046FFF7EBFF2DB10120A04059
:102320009DF80010084305E00120A0409DF8001032
:1023300021EA0000C0B200909DF8002039463046E6
:1023400000F036F8F8BD2DE9F843074688461446F4
:102350001D46089E6A4641463846FFF7C9FF28B326
:10236000601CFF2101FA00F0C4F108012944491E54
:10237000FF220A41104300F0FF09C5F1080006FAE8
:1023800000F0C6B2C4F1070006419DF8000000EA63
:10239000090000909DF80000304300909DF8002057
:1023A0004146384600F004F8BDE8F8830020FBE71A
:1023B00037B504460D4602AB01222946204600F0FF
:1023C00001F83EBD2DE9F04180460D4616461F46F8
:1023D0000024FFF701FF4046FFF7CCFEFFF754FF54
:1023E0002846FFF7C7FEFFF74FFF00BF06E0385D46
:1023F000FFF7C0FEFFF748FF601CC4B2B442F6DB33
:10240000FFF71EFF0120BDE8F081000008B50121A3
:10241000042001F033F84FF40060ADF80000102004
:102420008DF8030002208DF8020069460348FFF78B
:102430004DFD00200249086008BD00000008014071
:10244000AC01214208B50121082001F017F808204D
:10245000ADF8000010208DF8030002208DF8020076
:1024600069460348FFF732FD00200249086008BDB5
:10247000000C01408C81214201464906084A9269BC
:1024800042F00102064B9A61064A526822F0E0626D
:10249000044B5A601A4652680A435A60704700005B
:1024A00000100240000001402DE9F04FADB004469D
:1024B00089469246A3482B90A349D1E90023D1E94C
:1024C0000201CDE92723CDE92901CDF898A09E4B43
:1024D0001033D3E90021D3E90203CDE92403CDE988
:1024E00022219949203103C9CDE92001964928319B
:1024F00003C9CDE91E01944B30330FCB1AAD0FC584
:1025000091484030006819908F4B4433D3E9002044
:10251000D3E9021316AD0BC515928B49543103C98B
:10252000CDE913010020119012900F9010900B90A4
:102530000C900D900E900790089009900A900590CD
:1025400006900490484606F04FF90746884684F006
:102550000040019006F048F93A464346CDE90201B1
:1025600002F09CFD054605F0E3FB834611A8774980
:1025700022AA0123CDE90021029002221146104631
:1025800005F03AFA0FA826A920AA0123CDE90021D7
:1025900002901A461946022005F02EFA0F9911985A
:1025A00006F04EF96A4908601099129806F048F949
:1025B000674948600BA8674922AA0223CDE9002198
:1025C00002901A461946184605F016FA07A815A9EA
:1025D0000BAA0223CDE9002102901A46194618469B
:1025E00005F00AFA1A99079806F02AF95A4908607C
:1025F0001B99089806F024F9574948601C990998D6
:1026000006F01EF9544988601D990A9806F018F9D9
:102610005149C86005A81EAA0223CDE900210290F5
:102620001A461946012005F0E7F904A813A905AADE
:102630000123CDE90021029002221146184605F03F
:10264000DBF91999049806F0FBF8054629464FF086
:102650007E5006F063F9049011A813A93E4A0123A5
:10266000CDE90021029002221146104605F0C4F97E
:102670003A4804A911AA0123CDE9002102901A4683
:102680001946022005F0B8F904A831491EAA012311
:10269000CDE90021029002221146184605F0ACF95E
:1026A0005846049906F0CAFB049011A804A92B4AC5
:1026B0000123CDE9002102901A461946022005F0B7
:1026C0009BF9234A1199106806F0BAF81F4908606F
:1026D0001F4A1299506806F0B3F81C4948600BA8CD
:1026E0001EA91E4A0223CDE90021029001221146B3
:1026F000184605F081F90B99279806F09FFB0B907F
:102700000C99289806F09AFB0C900D99299806F0E0
:1027100095FB0D9027AA0E99D06806F08FFB0E90BE
:102720000C480D490BAA0223CDE9002102901A465C
:102730001946184605F060F9044800682DB0BDE858
:10274000F08F00000AD7A33B649C0008B80000206B
:10275000C0000020C800002008020020D80000208F
:102760002DE9F04FADB0044689469246A3482B9020
:10277000A349D1E90023D1E90201CDE92723CDE91D
:102780002901CDF898A09E4B1033D3E90021D3E95D
:102790000203CDE92403CDE922219949203103C95F
:1027A000CDE920019649283103C9CDE91E01944B9A
:1027B00030330FCB1AAD0FC59148403000681990E7
:1027C0008F4B4433D3E90020D3E9021316AD0BC578
:1027D00015928B49543103C9CDE9130100201190A2
:1027E00012900F9010900B900C900D900E900790FF
:1027F000089009900A90059006900490484605F0CC
:10280000F3FF0746884684F00040019005F0ECFF96
:102810003A464346CDE9020102F040FC054605F088
:1028200087FA834611A8774922AA0123CDE900211E
:10283000029002221146104605F0DEF80FA826A9E4
:1028400020AA0123CDE9002102901A461946022050
:1028500005F0D2F80F99119805F0F2FF6A49086067
:102860001099129805F0ECFF674948600BA867497A
:1028700022AA0223CDE9002102901A4619461846E1
:1028800005F0BAF807A815A90BAA0223CDE9002183
:1028900002901A461946184605F0AEF81A9907989C
:1028A00005F0CEFF5A4908601B99089805F0C8FF4B
:1028B000574948601C99099805F0C2FF544988603F
:1028C0001D990A9805F0BCFF5149C86005A81EAAC9
:1028D0000223CDE9002102901A461946012005F095
:1028E0008BF804A813A905AA0123CDE900210290C1
:1028F00002221146184605F07FF81999049805F050
:102900009FFF054629464FF07E5006F007F80490D9
:1029100011A813A93E4A0123CDE900210290022209
:102920001146104605F068F83A4804A911AA012397
:10293000CDE9002102901A461946022005F05CF804
:1029400004A831491EAA0123CDE9002102900222E8
:102950001146184605F050F85846049906F06EFAEC
:10296000049011A804A92B4A0123CDE9002102906B
:102970001A461946022005F03FF8234A11991068BB
:1029800005F05EFF1F4908601F4A1299506805F064
:1029900057FF1C4948600BA81EA91E4A0223CDE917
:1029A0000021029001221146184605F025F80B99E6
:1029B000279806F043FA0B900C99289806F03EFAF7
:1029C0000C900D99299806F039FA0D9027AA0E99C6
:1029D000D06806F033FA0E900C480D490BAA02237A
:1029E000CDE9002102901A461946184605F004F870
:1029F000044800682DB0BDE8F08F00000AD7A33B63
:102A0000C09C0008E0000020E8000020F00000204A
:102A1000180200200001002008B50121042000F068
:102A20002DFD4FF48070ADF8000048208DF80300B4
:102A300069460248FFF74AFA08BD00000008014055
:102A40001FB50121084600F019FD0121042000F006
:102A500015FD4FF48050ADF80C0048208DF80F00A4
:102A600003A91248FFF732FA0C210020FFF70EFAF3
:102A70004FF48050019000208DF808000C208DF854
:102A8000090001208DF80A0001A8FFF719F9282094
:102A90008DF8000002208DF8010001208DF8020061
:102AA0008DF80300684600F081FA1FBD0008014060
:102AB00010B502F0E3FCFFF7E9FA00F0F5F9FEF7D4
:102AC00065FFFFF7BDFF10BD2DE9F04F93B0044641
:102AD000012C04D100F05CFD13B0BDE8F08F44215F
:102AE000D020FFF789FA83464321D020FFF784FAEC
:102AF0000BEB0020099006F043F880464621D020D9
:102B0000FFF77AFA83464521D020FFF775FA0BEBE1
:102B10000020099006F034F882464821D020FFF7C3
:102B20006BFA83464721D020FFF766FA0BEB0020B3
:102B3000099006F025F881463C21D020FFF75CFA89
:102B400083463B21D020FFF757FA0BEB002009907A
:102B500006F016F807463E21D020FFF74DFA8346CF
:102B60003D21D020FFF748FA0BEB0020099006F03A
:102B700007F805464021D020FFF73EFA83463F2163
:102B8000D020FFF739FA0BEB0020099005F0F8FF91
:102B900006464FF08E41404606F01EF905D24FF032
:102BA0008F41404606F04AF980464FF08E4150462C
:102BB00006F012F905D24FF08F41504606F03EF96B
:102BC00082464FF08E41484606F006F905D24FF096
:102BD0008F41484606F032F981464FF08E41384623
:102BE00006F0FAF805D24FF08F41384606F026F984
:102BF00007464FF08E41284606F0EEF805D24FF01A
:102C00008F41284606F01AF905464FF08E413046AE
:102C100006F0E2F805D24FF08F41304606F00EF98B
:102C20000646384605F0E0FD944A954BCDE906018D
:102C300005F06CF9CDE9080105F07AF80E90284608
:102C400005F0D2FD8D4A8E4BCDE9060105F05EF907
:102C5000CDE9080105F06CF80D90304605F0C4FD93
:102C6000864A874BCDE9060105F050F9CDE9080108
:102C700005F05EF80C90404605F0B6FD4FF0663268
:102C8000804BCDE9060105F041F9CDE9080105F0D9
:102C90004FF81190504605F0A7FD4FF06632794B82
:102CA000CDE9060105F032F9CDE9080105F040F85B
:102CB0001090484605F098FD4FF06632714BCDE913
:102CC000060105F023F9CDE9080105F031F80F9070
:102CD000022C4CD1119880F0004002460390DDE9AF
:102CE0000C10FFF7E1FB834605F07EFD664A674B5B
:102CF000CDE9040105F00AF90022654BCDE9060192
:102D000005F098FACDE9080105F012F8614908606C
:102D1000109A0C990E98FFF723FD834605F064FD89
:102D2000594A5A4BCDE9040105F0F0F80022584BFE
:102D3000CDE9060105F07EFACDE9080104F0F8FFBF
:102D400055490860084600685449086051480068C1
:102D500048605348886088F00040C8600846C0F862
:102D600010A0C0F814908761C5610662B4E6032C18
:102D70007ED1304605F038FDCDE90201284605F048
:102D800033FDCDE90001DDE9022302F087F90022DD
:102D90003F4BCDE9040105F04DFA3B4A3B4BCDE9F1
:102DA000060105F0B3F8CDE9080104F0C1FF0B906E
:102DB000304605F019FDCDE90201384605F014FD55
:102DC000CDE90001DDE9022302F068F90022304B71
:102DD000CDE9040105F02EFA2B4A2C4BCDE9060172
:102DE00005F094F8CDE9080104F0A2FF0A904046EE
:102DF00005F0FAFC4FF066322A4BCDE9060105F0EA
:102E000085F8CDE9080104F093FF834659460B98F5
:102E1000FEF70CFD80F000401E490860504605F0AA
:102E2000E3FC4FF066321F4BCDE9060105F06EF86A
:102E3000CDE9080104F07CFF834659460A98FEF765
:102E400043FD80F0004014490860084600681349BB
:102E500008601048006848601148886088F00040A9
:102E6000C8600846C0F810A0C0F81490876100E060
:102E700002E0C56106622FE600BF2DE68FC2F5288D
:102E80005C1F9A40665E8D40F1D4C853FB21094017
:102E90000080664088000020840000204C02002052
:102EA000000035436666304010B514A0FDF704FA03
:102EB000022000F03FF813A0FDF7FEF9032000F018
:102EC0004DF812A0FDF7F8F9002000F03DF811A030
:102ED000FDF7F2F9002000F05DF810A0FDF7ECF925
:102EE000002000F04EF80FA0FDF7E6F9002000F0FA
:102EF0003FF80EA0FDF7E0F910BD0000302E310ABA
:102F000000000000302E320A00000000302E330A8C
:102F100000000000302E340A00000000302E350A78
:102F200000000000302E360A00000000302E370A64
:102F30000000000038B50446032302226B21D02094
:102F40000094FFF700FA38BD38B504460223042286
:102F50001C21D0200094FFF7F6F938BD38B504469F
:102F6000022304221B21D0200094FFF7ECF938BD86
:102F700010B50446234601223721D020FFF7C3F9BC
:102F800010BD10B50446234605226A21D020FFF764
:102F9000BAF910BD10B50446234606226B21D02095
:102FA000FFF7B1F910BD00BFFEE7704770B5002113
:102FB00000230F22C47804B3154C246804F4E064A1
:102FC000C4F5E064210AC1F10403CA40447804FA5C
:102FD00003F184781440214309010E4C0678A15571
:102FE000047804F01F050124AC4005786D11AD0094
:102FF00005F1E025C5F8004109E0047804F01F055B
:103000000124AC40044D0678761145F8264070BD89
:103010000CED00E000E400E080E100E010B50020ED
:1030200000F066FC10BDF8B507460C4615461E4676
:10303000002C0CDD032C0ADC601E00EB8000400637
:10304000020E2B4600213846009600F001F8F8BD2C
:103050002DE9F04107460C4615461E46DDF818805E
:103060000EB1FFF7DBFF2946204600F051FC01229C
:103070000549384600F0A6FCB8F1000F01D000F079
:1030800085F9BDE8F08100001001002010B500F0C6
:1030900003F800F0D9F810BD0848806940F0080036
:1030A000064988610648006820F0FF00044908606E
:1030B0000846006840F03300086070470010024086
:1030C000040C014070B504461448006820F0F0007C
:1030D000124908600846006840F03000086000208F
:1030E0000F490860002516E0E0090D49091D086038
:1030F0006006040E0120FEF752FD01200949C1F8C7
:10310000A001FEF74CFD0020054908600120FEF7F4
:1031100046FD681CC5B2082DE6DB70BD040C0140FD
:10312000A08121420080214210B51648006820F09D
:10313000F000144908600846006840F0300008605C
:103140000120114908601148D0F8240108B9002075
:1031500010BD01200C49091F0860FEF720FD00206A
:103160000A49C1F8A40108488038006808B1002065
:10317000EEE70220FEF713FD00200349091F086057
:103180000120E5E7040C0140A48121420080214296
:1031900010B51048006820F0F0000E49086008469D
:1031A000006840F03000086000200B4908600B49BF
:1031B000C1F8A4010220FEF7F2FC012006490860D4
:1031C000FEF7EDFC01200549C1F8A4010220FEF73D
:1031D000E6FC10BD040C0140A08121420080214288
:1031E00010B500241548006820F0F000134908606D
:1031F0000846006840F0800008600120104908601F
:10320000FEF7CDFC01200F49C1F8A001FEF7C7FC75
:103210000AE0601CC4B2322C03DDFFF7B9FF0020C6
:1032200010BD0120FEF7BBFC05488038006800286F
:10323000EFD10349091F08600120F1E7040C0140A8
:10324000A48121420080214210B540F6C41400E060
:10325000641E002CFCD1AE2200213C2004F0EAFCCC
:10326000A62200213C2004F0E5FCAE2200213C20F7
:1032700004F0E0FCD52200213C2004F0DBFC80229D
:1032800000213C2004F0D6FCA82200213C2004F0C0
:10329000D1FC1F2200213C2004F0CCFCD3220021D1
:1032A0003C2004F0C7FC002211463C2004F0C2FC84
:1032B000402200213C2004F0BDFC8D2200213C2056
:1032C00004F0B8FC142200213C2004F0B3FC2022BE
:1032D00000213C2004F0AEFC022200213C2004F03E
:1032E000A9FCA12200213C2004F0A4FCC82200215A
:1032F0003C2004F09FFCDA2200213C2004F09AFCE0
:10330000022200213C2004F095FC812200213C2077
:1033100004F090FCCF2200213C2004F08BFCD92249
:1033200000213C2004F086FCF12200213C2004F026
:1033300081FCDB2200213C2004F07CFC40220021A7
:103340003C2004F077FC2E2200213C2004F072FC8B
:10335000A42200213C2004F06DFCA62200213C2088
:1033600004F068FCAF2200213C2004F063FC002044
:1033700000F0BEFA00F03CFB0020034908804880C2
:103380000120487110BD00000801002010B500F0B8
:103390002FFB10BD2DE9F04105460E461746984615
:1033A000FFF7C2FE10B90120BDE8F0816906080EE2
:1033B000FFF788FEFFF714FF18B9FFF7E9FE0120B9
:1033C000F2E73046FFF77EFEFFF70AFF00240BE02E
:1033D00018F80400FFF776FEFFF702FF18B9FFF7B1
:1033E000D7FE0020E0E7641CBC42F1DBFFF7D0FE13
:1033F0000020D9E70146002902DD01F21450704790
:10340000002902DAA1F21450F9E70846F7E703466B
:103410001846884200DD0846904200DA10467047A0
:103420007047000001460020034A506820F44040E5
:1034300008435060704700000010024029B1064A5E
:10344000D2690243044BDA6104E0034AD269824341
:10345000014BDA61704700000010024029B1064AB2
:1034600012690243044B1A6104E0034A1269824361
:10347000014B1A61704700000010024029B1064A52
:1034800092690243044B9A6104E0034A92698243C1
:10349000014B9A61704700000010024029B1064AB2
:1034A000D2680243044BDA6004E0034AD2688243E4
:1034B000014BDA60704700000010024030B5002177
:1034C0000022002400232D4D6D6805F00C0121B170
:1034D000042905D0082923D105E0294D056022E003
:1034E000274D05601FE0254D6D6805F47012234DD2
:1034F0006D6805F48034022505EB92421CB9214D1C
:10350000554305600BE01D4D6D6805F400351DB198
:103510001C4D5543056002E0194D5543056002E01E
:10352000174D056000BF00BF144D6D6805F0F00138
:103530000909154D6B5C0568DD4045600F4D6D68F0
:1035400005F4E061090A104D6B5C4568DD4085605B
:103550000A4D6D6805F46051C90A0B4D6B5C4568F6
:10356000DD40C560054D6D6805F44041890B074D90
:103570006B5CC568B5FBF3F5056130BD001002401A
:1035800000127A0000093D003000002040000020B9
:103590002DE9F04F93B010A8974911AB0CAACDE9D3
:1035A00000109649964802F057F99348008800F4B5
:1035B000807000287ED00C9805F0E2FA07464FF0A4
:1035C0009D4105F0ABF904460D9805F0D9FA074680
:1035D0004FF09D4105F0A2F905460E9805F0D0FA8E
:1035E00007464FF09D4105F099F906460F9805F002
:1035F000C7FA07464FF09D4105F090F981462146F4
:103600004FF0804005F01CFB3146069005F018FB9A
:10361000294608904FF0404005F012FB49460690BD
:1036200005F00EFB0790089905F00AF9099005F0DE
:10363000DBF8CDE90A0101F0E9FA82464FF0663283
:10364000704B04F0F7FD074604F072FB6E4908600A
:1036500031464FF0804005F0F3FA3146039005F013
:10366000EFFA824629464FF0404005F0E9FA294634
:10367000039005F0E5FA8346514605F0DFFB8046EE
:103680004FF07E5105F0DCF8074605F0ADF8CDE9C6
:10369000060121464FF0804005F0D2FA83462946C4
:1036A00005F0CEFA804631464FF0804005F0C8FA6A
:1036B000834600E068E0494605F0C2FA824641468A
:1036C00005F0BEF8074605F08FF8CDE90401DDE905
:1036D000062301F0E3FC4FF066324A4BCDE90801C6
:1036E00004F0A8FDCDE90A0104F022FB4749086077
:1036F0004946484605F0A4FA31460590304605F0A3
:103700009FFA29460390284605F09AFA214602902E
:10371000204605F095FA0190029905F091F883464C
:10372000039905F08BFB0490059905F087FB824611
:1037300005F05AF8CDE906014946204605F080FA21
:1037400031460590284605F07BFA0490059905F06E
:1037500077F883464FF0804105F072FA824605F013
:1037600043F80746DDE9062301F098FC4FF0663286
:10377000244BCDE9080104F05DFDCDE90A0104F018
:10378000D7FA2349086000BF1F4800682149086034
:103790001E48006848601E48006888601849B1F9F2
:1037A000000005F0EDF91B49C8601549B1F90200A8
:1037B00005F0E6F9174908611149B1F9040005F06F
:1037C000DFF9144948610D49B1F9000005F0D8F955
:1037D000104988610949B1F9020005F0D1F90D4994
:1037E000C8610649B1F9040005F0CAF9094908623F
:1037F000084613B0BDE8F08F800000207A0000205A
:103800007400002066A64C40840000208800002040
:103810008C00002028020020014611B101290FD19F
:1038200006E0094A128810B20022074B1A8009E00C
:10383000064A128812B250420022044B1A8001E05C
:10384000002000BF00BF704724040040240800404F
:10385000F0B503461446802B01DA202900DBF0BDC9
:103860002148007920B10CB9012000E00020044675
:10387000012C1CD1CD1701EB5575ED1003EBC515CF
:103880001A4E755D0A46CE1701EB5676F610A1EB7F
:10389000C6070126BE403543EEB20846CD1701EB00
:1038A0005575ED1003EBC515104F7E551AE0CD1779
:1038B00001EB5575ED1003EBC5150C4E755D0A4611
:1038C000CE1701EB5676F610A1EBC6070126BE40D7
:1038D000B5430846CE1701EB5676F61003EBC61635
:1038E000024FBD5500BFBAE708010020700200205A
:1038F00010B504460CB9002000E0FF2002464FF44A
:1039000000710248FCF794FD10BD00007002002019
:10391000014A108051807047080100202DE9F043D2
:1039200007460C469046264800882178084480289F
:1039300005DA2348408861780844202802DB00200B
:10394000BDE8F083002530E0A7F12000617800FB9E
:103950000150616831F81090002622E009FA06F063
:1039600000F4004058B1164A52882A4491B2144AD1
:103970001288324490B24246FFF76AFF10E0B8F175
:10398000000F01D1012300E000231A460C4B5B8895
:103990002B4499B20A4B1B88334498B2FFF758FF67
:1039A000761C2078B042D9D86D1C6078A842CBD85C
:1039B0000348008821780844014908803846BFE759
:1039C0000801002070B504460D4616460AE020782E
:1039D00032462946FFF7A2FF2178884201D020789D
:1039E00070BD641C20780028F1D12078F8E7000031
:1039F00010B500241BE004F1B000C2B200213C204D
:103A000004F018F9002211463C2004F013F91022AA
:103A100000213C2004F00EF90648802101FB04023D
:103A20000B4640213C2004F00FF9601CC4B2082C66
:103A3000E1DB10BD70020020704710B500F002F805
:103A400010BD00000CB500200190009033480068C4
:103A500040F480303149086000BF3048006800F40D
:103A6000003000900198401C0190009818B901980E
:103A7000B0F5A06FF1D12948006800F4003010B112
:103A80000120009001E0002000900098012843D11F
:103A90002348006840F0100021490860084600688B
:103AA00020F0070008600846006840F00200086047
:103AB0001A48406819494860084640684860084606
:103AC000406840F4806048600846406820F47C10FC
:103AD00048600846406840F4E810486008460068BE
:103AE00040F08070086000BF0C48006800F0007073
:103AF0000028F9D00948406820F0030007494860D1
:103B00000846406840F00200486000BF0348406833
:103B100000F00C000828F9D10CBD00000010024094
:103B20000020024010B520B90022224B1A801B1D34
:103B30001A8029B900221F4B08331A801B1D1A80D6
:103B400000280BDD021E01DB134600E05342194C36
:103B5000241D23800022231F1A800AE00022154B17
:103B60001B1D1A80021E01DB134600E05342114C5C
:103B7000238000290BDD0A1E01DB134600E05342BF
:103B80000C4C083423800022231D1A800BE00022F5
:103B9000084B08331A800A1E01DB134600E053422B
:103BA000044C0C3423800022034B1A80034B1A80F0
:103BB00010BD0000343401402404004024080040BB
:103BC000042808D14FF0E021096941F004014FF0C9
:103BD000E022116107E04FF0E021096921F00401C2
:103BE0004FF0E022116170477047000010B5134894
:103BF000006840F00100114908600846406810491B
:103C000008400E494860084600680E4908400B49C4
:103C100008600846006820F4802008600846406874
:103C200020F4FE0048604FF41F008860FFF705FF96
:103C30004FF000600449086010BD00000010024011
:103C40000000FFF8FFFFF6FE08ED00E0F0B50C46BF
:103C5000154600220021068C4FF6FE773E40068472
:103C6000028B018C4FF60C7632407E1C06EA03165E
:103C70002E433243104EB0420ED0104EB0420BD005
:103C8000B0F1804F08D00E4EB04205D00D4EB0427C
:103C900002D00D4EB04206D14FF6FD76314044F0D1
:103CA0000106314305E04FF6F576314044F0010658
:103CB000314302830184F0BD002C014000340140F7
:103CC0000004004000080040000C0040F0B50C4625
:103CD0001546002200210026078C4FF6EF7C07EAEC
:103CE0000C070784028B018C4FF6FF7707EA041656
:103CF00040F6FF473A404FF6FF7707EA03373A436B
:103D00004FF6FF7707EA05273A43114FB8420ED026
:103D1000104FB8420BD0B0F1804F08D00E4FB842D0
:103D200005D00E4FB84202D00D4FB84206D14FF623
:103D3000DF77394046F01007394305E04FF65F77EB
:103D4000394044F01007394302830184F0BD00007C
:103D5000002C0140003401400004004000080040F5
:103D6000000C0040F0B50C4615460022002100264C
:103D7000078C4FF6FF6C07EA0C070784828B018CD7
:103D80004FF6FF7707EA04264FF60C773A404FF6D6
:103D9000FF7707EA03172F433A43114FB8420ED07B
:103DA000104FB8420BD0B0F1804F08D00E4FB84240
:103DB00005D00E4FB84202D00D4FB84206D14FF693
:103DC000FF57394046F48077394305E04FF2FF57FB
:103DD000394044F48077394382830184F0BD000088
:103DE000002C014000340140000400400008004065
:103DF000000C0040F0B50C461546002200210026BC
:103E0000078C4EF6FF7C07EA0C070784828B018C37
:103E10004FF6FF7707EA043640F6FF473A404FF681
:103E2000FF7707EA05273A434FF6FF7707EA03379C
:103E30003A43114FB8420ED0104FB8420BD0B0F1F8
:103E4000804F08D00E4FB84205D00E4FB84202D076
:103E50000D4FB84206D14DF6FF77394046F48057F2
:103E6000394305E047F6FF57394044F4805739435A
:103E700082830184F0BD0000002C01400034014029
:103E80000004004000080040000C00400448008886
:103E90000348008820F001000149088070470000B5
:103EA00010040040044800880348008820F0010006
:103EB00001490880704700001008004010B501213A
:103EC0000E4800F096F9C0B101210C4800F05DF8F1
:103ED0000B480088401C0A4908800A480078401CAA
:103EE0000849087008480088002804DD0648008852
:103EF000401E0549088001F039FA10BD001000404D
:103F0000340100202D0100202E0100201FB50121C9
:103F10001020FFF793FA41F61F40ADF8040063202C
:103F2000ADF8080001A9104800F066FB01210E4819
:103F300000F028F8012211460B4800F0CAF936209B
:103F40008DF8000004208DF8010002208DF8020099
:103F500001208DF803006846FFF728F80121024888
:103F600000F016F81FBD00000010004021B10288CB
:103F700042F08002028004E002884FF67F731A400C
:103F800002807047CA4302827047CA430282704768
:103F900021B1028842F00102028004E002884FF65B
:103FA000FE731A400280704731B1B0F8442042F4E9
:103FB0000042A0F8442005E0B0F84420C2F30E020D
:103FC000A0F844207047000010B5044668488442B9
:103FD00008D10121C014FFF761FA0021E014FFF7B6
:103FE0005DFAC4E0B4F1804F08D101210846FFF723
:103FF00035FA00210120FFF731FAB8E05D4884422C
:1040000008D101210220FFF729FA00210220FFF741
:1040100025FAACE05848844208D101210420FFF77A
:104020001DFA00210420FFF719FAA0E0534884424A
:1040300008D101210820FFF711FA00210820FFF71D
:104040000DFA94E04E48844208D101211020FFF778
:1040500005FA00211020FFF701FA88E04948844260
:1040600008D101212020FFF7F9F900212020FFF7D6
:10407000F5F97CE04448844208D101214014FFF75F
:104080000DFA00216014FFF709FA70E03F488442FE
:1040900009D10121C804FFF701FA00214FF40020E3
:1040A000FFF7FCF963E03A48844209D10121080591
:1040B000FFF7F4F900214FF48010FFF7EFF956E015
:1040C0003448844209D101214805FFF7E7F900216E
:1040D0004FF40010FFF7E2F949E02F48844208D17D
:1040E00001214020FFF7BAF900214020FFF7B6F97F
:1040F0003DE02A48844208D101218020FFF7AEF933
:1041000000218020FFF7AAF931E02548844208D138
:1041100001218015FFF7A2F90021A015FFF79EF9F4
:1041200025E02048844209D101210804FFF7B6F9AF
:1041300000214FF48030FFF7B1F918E01A488442AB
:1041400009D101214804FFF7A9F900214FF40030FB
:10415000FFF7A4F90BE01548844208D10121880437
:10416000FFF79CF900214FF48020FFF797F910BD6D
:10417000002C01400004004000080040000C0040FA
:10418000001000400014004000340140004C014089
:10419000005001400054014000180040001C004045
:1041A0000020004000400140004401400048014020
:1041B000F0B50C4615461E46002100220023018959
:1041C000028B038C4FF6F877394021434FF6FC47BA
:1041D0003A4040F201173A434FF6DD773B404FF645
:1041E000FF7707EA06172F433B43018102830384CD
:1041F000F0BD30B50246002000230024158A05EAF0
:104200000103958905EA010413B10CB1012000E016
:10421000002030BD70B505460C46244885420ED0BE
:10422000234885420BD0B5F1804F08D02148854204
:1042300005D02148854202D02048854200D100E0C7
:1042400000BF208850B92389A28861882846FFF7DB
:10425000FDFCE188284600F0A2F925E0208804282A
:104260000AD12389A28861882846FFF72FFDE188BB
:10427000284600F09DF917E0208808280AD12389F4
:10428000A28861882846FFF76DFDE188284600F086
:104290009CF909E02389A28861882846FFF7AAFDD6
:1042A000E188284600F09AF970BD0000002C01401A
:1042B000003401400004004000080040000C0040B1
:1042C000002101804180012181800021C180018184
:1042D00070471AB183890B43838102E083898B4342
:1042E0008381704770B5002400220023058C4FF6AF
:1042F000FE7635400584028C8388048B4FF68F75DB
:104300002C40B51E2C400D882C43751E2A400D896B
:104310002A434D882A43144DA8420BD0134DA8427E
:1043200008D0134DA84205D0124DA84202D0124D1C
:10433000A84213D14FF6F7752A404D892A434FF60C
:10434000FB752A408D882A434FF6FF652B404FF6B8
:10435000FF552B408D892B43CD892B4383800483CC
:10436000CD888586028470BD002C01400034014058
:104370000040014000440140004801400A4600213D
:10438000018B4FF6F773194011430183704700000A
:1043900070B5002400220023058C4FF6EF763540DF
:1043A0000584028C8388048B48F6FF752C404FF6F9
:1043B000FF452C400D884FF6FF7606EA05252C4375
:1043C0004FF6DF752A400D8906EA05152A434D8808
:1043D00006EA05152A43154DA84202D0144DA842FD
:1043E0001DD14FF67F752A404D894FF6FF7606EABC
:1043F00005152A434FF6BF752A408D8806EA051534
:104400002A434FF6FF352B404FF2FF752B408D8925
:1044100006EA85052B43CD8906EA85052B43838073
:104420000483CD880587028470BD0000002C014004
:10443000003401400A460021018B4FF2FF731940FE
:104440004FF6FF7303EA022319430183704700000C
:1044500070B5002400220023058C4FF6FF6635401E
:104460000584028C8388848B4FF68F752C404FF621
:10447000FC752C400D882C434FF6FF552A400D89C2
:104480004FF6FF7606EA05252A434D8806EA0525FC
:104490002A43154DA84202D0144DA8421DD14FF217
:1044A000FF752A404D894FF6FF7606EA05252A4317
:1044B0004FF6FF352A408D8806EA05252A434EF639
:1044C000FF752B404DF6FF752B408D8906EA0515CB
:1044D0002B43CD8906EA05152B4383808483CD8841
:1044E0008587028470BD0000002C0140003401402B
:1044F0000A460021818B4FF6F773194011438183DF
:104500007047000070B5002200230024058C4EF691
:10451000FF7635400584038C8488828B48F6FF75CE
:104520002A404FF6FF452A400D884FF6FF7606EAEF
:1045300005252A434DF6FF752B400D8906EA053502
:104540002B434D8806EA05352B430B4DA84202D07C
:104550000A4DA84208D14BF6FF752C408D894FF6C5
:10456000FF7606EA85152C4384808283CD88A0F8E7
:104570004050038470BD0000002C01400034014015
:104580000A460021818B4FF2FF7319404FF6FF73EB
:1045900003EA022319438183704781847047028BA9
:1045A0004FF6F3731A400283028B0A43028370476B
:1045B000028B4FF2FF331A400283028B4FF6FF73D8
:1045C00003EA01231A4302837047828B4FF6F37389
:1045D0001A408283828B0A4382837047828B4FF218
:1045E000FF331A408283828B4FF6FF7303EA012365
:1045F0001A43828370470000002202881D4B9842B4
:104600000ED01D4B98420BD0B0F1804F08D01B4B01
:10461000984205D01A4B984202D01A4B984204D1C6
:104620004FF68F731A404B881A43174B984207D0A6
:10463000164B984204D04FF6FF431A40CB881A43DA
:1046400002808B8883850B8803850A4B98420BD0A8
:10465000094B984208D00E4B984205D00D4B98421A
:1046600002D00D4B984201D10B7A0386012383823D
:1046700070470000002C014000340140000400405D
:1046800000080040000C00400010004000140040F2
:104690000040014000440140004801404FF6FF71D6
:1046A000818000210180C18041800172704700003B
:1046B0002DE9FE4F0E461446204FDFF8848041F668
:1046C000E840029040420190204604F059FA8246A8
:1046D000314604F0B5F8814604F016FA054619484B
:1046E00000682844174908600846006841F6E84118
:1046F000884202DD084613490860124800681249E2
:10470000884202DA08460F4908600E48006804F043
:1047100037FA4146009004F093FA8246284604F0A6
:104720002FFA3946009004F08BFA8346514604F084
:1047300087F8814604F0E8F9BDE8FE8F0000C84123
:104740003333B33E1800002018E3FFFF10B50024F8
:1047500040F22551054800F094F830B1034800F0CC
:104760004BF9C4B2204600F003F810BD00380140F8
:1047700010B5044600BF8021044800F075F80028F9
:10478000F9D02146014800F03CF910BD0038014045
:1047900010B586B0044601214804FEF74FFE012102
:1047A0000420FEF76BFE0420ADF8140018208DF8ED
:1047B000170003208DF8160005A91B48FDF786FB9E
:1047C0000820ADF8140004208DF8170005A916483C
:1047D000FDF77CFB26208DF8000001208DF80100FC
:1047E0008DF802008DF803006846FEF7DFFB0194A8
:1047F0000020ADF80800ADF80A00ADF80C00ADF8E7
:1048000010000C20ADF80E0001A9084800F088F84F
:10481000012240F22551054800F05DF801210348CE
:1048200000F016F806B010BD00080140004400403A
:1048300010B5044600BF8021044800F015F8002898
:10484000F9D02146014800F0DCF810BD00500040CE
:1048500021B1828942F40052828104E082894DF6BE
:10486000FF731A408281704702460020B1F5007F35
:1048700000D100BF13880B400BB1012000E00020E5
:10488000704770B50246002400230025002040F642
:104890006A16B14200D100BFC1F3421501F01F03F7
:1048A000012606FA03F3012D02D19689334006E072
:1048B000022D02D1168A334001E0968A33400C1251
:1048C000012606FA04F41688344013B10CB1012015
:1048D00000E0002070BDF0B503460024002600254E
:1048E000002040F66A17B94200D100BF1846C1F354
:1048F000421401F01F06012707FA06F5012C01D129
:104900000C3004E0022C01D1103000E014301AB158
:1049100007682F43076002E00768AF430760F0BDF8
:104920002DE9F04786B005460E460024A24600BF9A
:10493000A1460027B08900B100BF2F462C8A4CF653
:10494000FF700440F08804432C82AC894EF6F310CB
:104950000440B08831890843718908430443AC811D
:10496000AC8A4FF6FF400440B0890443AC8201A8F2
:10497000FEF7A4FD1F48874202D1DDF810A001E038
:10498000DDF80CA0A88900F4004040B10AEBCA0091
:1049900000EB0A1031684900B0FBF1F807E00AEBC0
:1049A000CA0000EB0A1031688900B0FBF1F86420FE
:1049B000B8FBF0F004012009642101FB1089A889EB
:1049C00000F4004040B1322000EBC900B0FBF1F030
:1049D00000F00700044308E0322000EB09106421D6
:1049E000B0FBF1F000F00F0004432C8106B0BDE8ED
:1049F000F08700000038014001468888C0F30800B5
:104A00007047C1F308028280704700BFFEE70000D4
:104A10002DE9F84F04460D46104FDFF84480661B21
:104A20001048006830440F4908600846006804F0E8
:104A3000A7F84146009004F003F98246304604F09E
:104A40009FF83946009004F0FBF88346514603F086
:104A5000F7FE814604F058F8BDE8F88F0000A04248
:104A60003333B33E14000020490050EAC12018BF80
:104A700004204A0D18BF40F0010040F2FF72B2EB73
:104A8000515F08BF40F00200012808BF05207047B1
:104A90002DE9F0414F1E00EBC7010446D1E90001AA
:104AA00015461E4637F006020DD02A46334603F05F
:104AB000C1FB7F1E04EBC703D3E9002303F06AF9AF
:104AC00037F00602F1D1022F25D0042F13D0062F84
:104AD00018BFBDE8F0812A46334603F0ABFBD4E9AA
:104AE0000A2303F057F92A46334603F0A3FBD4E91F
:104AF000082303F04FF92A46334603F09BFBD4E921
:104B0000062303F047F92A46334603F093FBD4E922
:104B1000042303F03FF92A46334603F08BFBD4E924
:104B2000022303F037F92A46334603F083FBD4E926
:104B30000023BDE8F04103F02DB9012204F027BAAB
:104B400003F028B9002213461046114603F0DEB9DF
:104B5000024A0020110704F01ABA000001FDFFFF0D
:104B600000BF70472DE9FE4F06460F4600256846F8
:104B700001F0D8FA002442E056F8240057F8241037
:104B8000A0EB010ABAF1000F01DB514601E0CAF1C6
:104B90000001084603F0F4FF83464FF08F4103F015
:104BA000BDFE80465DF82400002103F079FF16D099
:104BB0005DF82410404603F0B1FE82464FF07E516E
:104BC00004F03CF9814629F0004A0F48416A5046FA
:104BD00004F002F912D20120A04005430EE00A4879
:104BE000C169404603F0F8FF05D30748016A404613
:104BF00004F0F2F802D20120A0400543641C032C0B
:104C0000BADB2846BDE8FE8F449000082DE9F04D40
:104C10008D4F21F0004A86B005460C46BA452ADB86
:104C2000AAEB070028430AD08848824501DC1AD144
:104C3000CDB106B02846BDE8F04DFFF77EBF844AEF
:104C4000844B284603F0F6FA07460E46824A834B09
:104C50002846214603F0EEFA06B03A463346BDE850
:104C6000F04D03F097B80120FBF78CFC06B0BDE8CF
:104C7000F04DFFF767BF7A48824542DABAF1795FB3
:104C80000BDA2846FFF7F0FE042808BFFFF760FFA5
:104C9000284606B02146BDE8F08D2A460B46104650
:104CA00003F0C8FA834602466E480E460B460621BC
:104CB0007844FFF7EDFE5A46334603F0BBFA8046D0
:104CC00069488A465A46334604217844FFF7E0FE95
:104CD0005A46334603F0AEFA00223B4603F05AF838
:104CE00002460B464046514603F010F92A46234639
:104CF00003F0A0FA06B02A462346BDE8F04D03F0C3
:104D000049B8284624F0004100223D463B4603F0C6
:104D10008FFB4FF0FF3204F03AF906460246534843
:104D20000F460B4606217844FFF7B2FE32463B465B
:104D300003F080FACDE900014D4832463B4604219C
:104D40007844FFF7A5FE32463B4603F073FA002293
:104D50002B4603F01FF8834602913046394602F095
:104D600043FF804643480D46504517DCDDE900010E
:104D70005A46029B03F0CAF842462B4603F05AFA01
:104D800042462B4603F006F8012204F000F9304AAF
:104D9000304B03F03FFC304A304B4CE04FF0000A00
:104DA00052460B46404602F0F5FFCDE9031052464D
:104DB0002B461046194603F03DFA32463B4603F0B7
:104DC00037FBDDE9033203F0A1F806460F46DDE9C3
:104DD00000015A46029B03F099F883460091012294
:104DE0003046394604F0D3F8194A1A4B03F020FB39
:104DF00006460F4601224046294604F0C8F85A46A6
:104E0000009B03F017FA32463B4603F003FC0646CC
:104E10000F4601225046294604F0B9F80E4DDFF83E
:104E200058802A46434603F003FB32463B4603F0D4
:104E3000FFFA2A46434603F0FBFA002CD8BF81F064
:104E4000004106B0BDE8F08D0000F03F0000F07FAB
:104E5000075C143326A6913C182D4454FB21F93FDE
:104E60000000E03F7C7800009278000006780000A7
:104E70001C7800003333EF3FFB21E93F2DE9F84F69
:104E800004460D4621F0004000917349814211DC37
:104E90007249884201DC06D12CB120462946BDE882
:104EA000F84FFFF74ABE6E48002DCCBF6D496E49E2
:104EB000BDE8F88F6D49814211DD6D498142D8BF4F
:104EC0004FF0FF366DDD20462946FFF7CDFD042863
:104ED00008BFFFF73DFE20462946BDE8F88F65492B
:104EE000654F25F00045814233DD6449814219DD7B
:104EF000002632464FF080432046294602F04AFF02
:104F000080468A4601222046294604F040F80022C5
:104F10003B4603F07FFB4246534602F0F7FF044650
:104F20000D463EE001260022BA463B462046294671
:104F300002F030FF80460F460022534620462946A5
:104F400003F068FB42463B4602F0E0FF04460D4694
:104F500027E04B4981421BDDDFF828A10226002211
:104F600053462046294603F065F900223B4602F0ED
:104F700011FF80460F46002253462046294603F083
:104F800049FB42463B4602F0C1FF04460D4608E09D
:104F9000032622462B4600203B4902F0B7FF044679
:104FA0000D4622462B461046194603F043F98B4620
:104FB000824602460B4603F03DF907460246334857
:104FC00088460B4606217844FFF762FD52465B4651
:104FD00003F030F982462E488B463A464346052177
:104FE0007844FFF755FD3A46434603F023F902465D
:104FF0000B46002E504659460CDA02F0CBFE2246F4
:105000002B4603F017F901B022462B46BDE8F04FBE
:1050100003F00EBA02F0BEFE22462B4603F00AF958
:105020001C4A7A4402EBC603D3E9002303F0F2FAE8
:1050300022462B4603F0EEFA174A7A4402EBC603E7
:10504000D3E9002303F0F4F9009A002AB8BF81F0F5
:105050000041BDE8F88F0000000010440000F07F20
:10506000182D4454FB21F93FFB21F9BF0000DC3F20
:105070000000203E0000F33F0000F03F0000E63F4C
:10508000008003400000F83F0000F0BF1E760000E3
:10509000DC7500007A750000427500002DE9F04DC6
:1050A0009446CCF1000423F000464CEA0404524F2D
:1050B00046EAD4749A46884621F00042BC4206D89B
:1050C000454240EA050442EAD474BC4204D9BDE832
:1050D000F04D6246FFF734BDAAF14055A5F17F655A
:1050E00055EA0C040BD0022404EAAA74434DDFF8FD
:1050F00010E144EAD87452EA000B04D00CE0BDE899
:10510000F04DFFF7BBBE002C14BF012CBDE8F08DA5
:10511000022C30D0032C32D056EA0C0B0AD0BE42FF
:1051200020D1BA4209D126F0804622F0804233468F
:10513000114617E000291ADB25E0DFF8C8B0FB4470
:10514000002C04BFDBE90001BDE8F08D012C02BF9B
:10515000DBE9000181F00041BDE8F08D022C0AD0AE
:10516000032C0CD0BA4212D1B8F1000F0BDA23484D
:105170002549BDE8F08D28462449BDE8F08D284634
:105180007146BDE8F08D1D482149BDE8F08D921BA8
:1051900012153C2AC4BF19481D490EDCBAF1000F94
:1051A000BEBF12F13C0F0020014606DB624602F052
:1051B000ADFE21F00041FFF761FE002C08BFBDE805
:1051C000F08D012C04BF81F00041BDE8F08D114A43
:1051D000114B022C07D003F01DFA2A46BDE8F04D12
:1051E0000A4B03F017BA03F015FA2A46BDE8F04D52
:1051F000064B03F01DB900000000F07F182D445449
:10520000FB2109C0D6740000FB21F9BFFB21094036
:10521000FB21F93F075C143326A6A13C00B587B0FB
:1052200001210805FEF70AF901213020FEF726F9D1
:105230004FF48050ADF8180018208DF81B000320A3
:105240008DF81A0006A91C48FCF740FE0420ADF8B2
:1052500018008DF81B0006A91848FCF737FE35200A
:105260008DF8040000208DF8050001208DF806005F
:105270008DF8070001A8FDF799FE4FF41650029033
:105280000020ADF80C00ADF80E00ADF81000ADF840
:1052900014000C20ADF8120002A90948FFF740FBEA
:1052A000012240F225510648FFF715FB0121044871
:1052B000FFF7CEFA07B000BD001001400014014016
:1052C0000050004070B505462C4603E02078FFF7FB
:1052D000AFFA641C20780028F8D170BD10B5022008
:1052E000FCF740FB00F0CAF80220FDF7C5F80120EA
:1052F000FDF7C2F8FEF70AFEFCF750FA00F0BEF820
:10530000FDF78AFBFDF782F8FDF79CF84FF4E130DA
:1053100002F0A8FC4FF4E130FFF73AFAFCF7B6F9D7
:1053200000214FF43460FCF7E3F9FCF713FDFCF7C0
:105330005FFDFDF7BDFBFDF7A9FEFDF76FFE01F078
:10534000B1FAFFF76BFF02A0FFF7BCFF10BD000032
:1053500042756C65746F6F746820496E6974205370
:105360007563636573736564210A000023480088D0
:1053700058B923480088B0F5967F3DDD00202049CC
:10538000088001201D49088036E01D480088142847
:1053900032DD00201A4908801A48007840B91A48BE
:1053A000006808B9012000E00020174908600BE000
:1053B0001648006808B9012000E000201349086081
:1053C00001201349C1F88C0112480088401C114982
:1053D00008800846008806280ED10A48007818B9C7
:1053E00000200949086002E0002008490860002008
:1053F00008490880014908807047000030010020FA
:1054000034010020360100208C812142AC01214270
:1054100000802142320100202DE9F0410446E0786D
:1054200000F0C006E07800F03F05607800F0010071
:1054300098B1EF102846E91705EB5171C910A5EB9B
:10544000C101491C01F0FF080B48006820B10A485F
:10545000414602683846904700BF607800F0080077
:1054600030B10548406818B1B011034A5168884707
:105470000020BDE8F08100006401002010B50E4856
:1054800000680E49B0FBF1F0C4B26FF00400FEF703
:1054900097FBE11704EB5171C910094A11701046CE
:1054A000007800EB4001C1EBC0104FF6FF7101EA3C
:1054B000C0000449088010BD1C00002040420F00BD
:1054C000440000204600002001460D4A12884A434D
:1054D0004FF0E0235A6100229A6101221A6100BF55
:1054E0004FF0E022106900F001021AB100F480329E
:1054F000002AF5D000224FF0E0231A619A6170472C
:10550000460000200349088000BF0249098800299D
:10551000FBD170472E01002001460D4A12784A4304
:105520004FF0E0235A6100229A6101221A6100BF04
:105530004FF0E022106900F001021AB100F480324D
:10554000002AF5D000224FF0E0231A619A617047DB
:105550004400002038B5044664B120208DF80000D6
:1055600028208DF8010030208DF8020038208DF8B9
:10557000030004E0A32204216846FAF759FF6A46B3
:10558000042140F69E2002F0F7F901F0E7FD38BD56
:105590003EB5044602208DF80000CA208DF80100B7
:1055A000E3208DF8020009208DF803006A460421EB
:1055B000682002F0E1F9A3208DF8000004F040001B
:1055C00048B1C0208DF80100C8208DF80200C2202B
:1055D0008DF8030006E0A3208DF801008DF802008D
:1055E0008DF8030004F4C07048B1C4208DF80400A5
:1055F000CC208DF80500C6208DF8060006E0A3201B
:105600008DF804008DF805008DF80600A3208DF8B4
:1056100007008DF808008DF809006A460A2140F657
:10562000A72002F0A9F904F0030018B120208DF89A
:10563000000002E0D8208DF800006A46012140F603
:10564000B62002F099F904F0200018B1012000F012
:10565000ADF802E0002000F0A9F804F4C07008B32F
:1056600004F4807060B1B2208DF800008B208DF8BA
:105670000100B6208DF802009B208DF803000BE09E
:10568000B0208DF8000080208DF80100B4208DF846
:10569000020090208DF803006A46042140F6A22003
:1056A00002F06AF904F0010020B3F8208DF8000040
:1056B0006A4601214FF40B6002F05EF9FA210720DF
:1056C00000F02CFC072000F0F3FB012000F013FC9D
:1056D000642000F0F3FC4FF4FA7000F002FDC821E2
:1056E000304800F0A3FB282000F0BCFB0A2000F0AB
:1056F000CCFB08E0D8208DF800006A4601214FF469
:105700000B6002F039F904F0020018B1D9208DF8CD
:10571000000002E0D8208DF800006A46012140F226
:105720003D7002F029F904F0040018B1012000F0E6
:1057300069F802E0002000F065F804F0100018B1EC
:105740000120FFF707FF02E00020FFF703FF44F00E
:1057500008001549488101F001FD002012498873B5
:1057600004F0400018B10846807B801D887304F463
:10577000C07020B10C48807B801D0B49887304F0F9
:10578000140020B10848807B10300749887304F06A
:10579000030020B10448807B001D0349887300206A
:1057A0003EBD000009E3CA02640100203EB5044684
:1057B0006CB10EA1D1E900208968CDE900200291E9
:1057C0006A4609214FF4976002F0D6F83EBD0AA25E
:1057D000D2E900109268CDE9010200916A460921E0
:1057E0004FF4976002F0C8F8F0E70000B8AAB38D54
:1057F000B4980D355D000000B8AAAAAAB088C3C548
:10580000C700000038B5044664B1C0208DF8000020
:10581000C2208DF80100C4208DF80200C6208DF84A
:10582000030004E08B2204216846FAF701FE6A4671
:10583000042140F6982002F09FF801F08FFC38BD5B
:1058400010B5C8234FF48062024940F6F63001F0EB
:1058500019FB10BD6C9000082DE9F04F8DB0074684
:10586000884615469946DDE9166B002400203080F5
:105870006B49887B5A4605A901F0D0FB18B1601E20
:105880000DB0BDE8F08F6648807A00F01400002863
:1058900067D09DF8140000069DF8151040EA0140FD
:1058A0009DF8161040EA01209DF817100843286063
:1058B0009DF8180000069DF8191040EA01409DF877
:1058C0001A1040EA01209DF81B10084368609DF8FB
:1058D0001C0000069DF81D1040EA01409DF81E10B6
:1058E00040EA01209DF81F100843A8609DF82000A1
:1058F00000069DF8211040EA01409DF8221040EA80
:1059000001209DF823100843E86004F11000C4B2A0
:10591000286800140190686800140290A8680014B8
:105920000390E8680014049001984043029901FB39
:105930000100039901FB0100049901FB010ABAF17E
:10594000706F02DBBAF1885F05DD01F007FC002013
:105950003080401E94E7B6F9000040F4807030803B
:1059600000BF2F48807A00F0400020B305A9601CDA
:10597000085C095D40EA012000B2A8F8000005A912
:10598000E01C095C05AAA01C105C41EA002000B2E2
:10599000A8F8020005A9601D095C201D105C41EA01
:1059A000002000B2A8F80400A01DC4B2B6F900009F
:1059B00040F0080030801A48408900F4C07008B3F5
:1059C00005A9601C085C095D40EA012000B238802E
:1059D00005A9E01C095C05AAA01C105C41EA002096
:1059E00000B2788005A9601D095C201D105C41EAA9
:1059F000002000B2B880A01DC4B2B6F9000040F08B
:105A0000700030800648807A00F0030018B105A9C4
:105A10000819FFF701FD484602F054F800202FE76F
:105A20006401002070B588B0064601A801F07EF838
:105A3000BDF804000021C90341EA5045C4034448AD
:105A4000007A00F0030056F8200005904048007AE4
:105A500000F0040010B10598404205903C48007ADF
:105A6000C0F3C10056F8200006903948007A00F0D3
:105A7000200010B10698404206903548007AC0F3E5
:105A8000811056F8200007903148008900F480709A
:105A900010B10798404207900598C117A0FB042356
:105AA00001FB043100FB0510810041EA9270059072
:105AB0000698C117A0FB042301FB043100FB05106D
:105AC000810041EA927006900798C117A0FB042359
:105AD00001FB043100FB0510810041EA9270079040
